S00F00004C4344313678322E7372656331
S11300000C942A000C943F000C943F000C943F0085
S11300100C943F000C943F000C943F000C943F0060
S11300200C943F000C943F000C943F000C943F0050
S11300300C943F000C943F000C943F000C943F0040
S11300400C943F000C943F000C943F000C943F0030
S11300500C943F0011241FBECFE5D8E0DEBFCDBF16
S113006010E0A0E6B0E0E4E9F2E002C005900D92F1
S1130070AC36B107D9F70E941F010C9448010C94C7
S1130080000092B39F7392BB85BB82B3806282BB34
S11300908FE19EE40197F1F700C0000082B38F7DE9
S11300A082BB089592B3906892BB92B39F7B92BB3C
S11300B085BB82B3806282BB8FE19EE40197F1F736
S11300C000C0000082B38F7D82BB089581111CC0E3
S11300D080E3FB01808311820895FB01E20FF31F8B
S11300E09DEC899F912D1124969596959695592F5F
S11300F0550F452F440F440F450F841B805D8083AB
S1130100892F2F5F3F4F02C020E030E08111E5CFFF
S1130110FB01E20FF31F1082C901019720E030E0D8
S11301200DC0DB01A20FB31F4C91FB01E80FF91FB7
S113013050815C9340832F5F3F4F01972817390705
S113014084F30895CF93DF93EC0103C00E9452001F
S1130150219688818111FACFDF91CF9108950E9471
S113016052000895CF93DF93EB010E946600CE0105
S11301700E94A200DF91CF9108950E9441008FE96F
S11301809FE00197F1F700C0000008958FEF84BB52
S113019012BA80EE81BB82B38F7182BB88E30E9466
S11301A041008CE00E94410081E00E94BD0086E095
S11301B00E9441000895CF92DF92FF920F931F9304
S11301C0CF93DF936C01FC01F12C02C03196F394C0
S11301D080818111FBCF80E80E94BD00C0E0D0E0A7
S11301E007C0F601EC0FFD1F80810E94AF0021962D
S11301F00F2D10E0C017D107A4F3C0E00DC02FEFFE
S113020081EE94E0215080409040E1F700C000006E
S113021088E10E94BD00CF5F8C2F90E09801205FA1
S11302203F4F821793075CF380E80E94BD00DF9183
S1130230CF911F910F91FF90DF90CF900895CF93AE
S1130240DF93CDB7DEB72A970FB6F894DEBF0FBEA3
S1130250CDBF0E94C60081E00E94BD0080EC0E94D8
S1130260BD00BE016F5F7F4F8FEF0E94B20080E838
S11302700E94BD0080E690E00E94DB002FEF84E343
S11302809CE0215080409040E1F700C00000F2CF94
S1070290F894FFCF0C
S10F029448656C6C6F20576F726C64003E
S9030000FC
